{
  "_format": "hh-sol-artifact-1",
  "contractName": "CryptoDevsDAO",
  "sourceName": "contracts/CryptoDevsDAO.sol",
  "abi": [
    {
      "inputs": [
        {
          "internalType": "address",
          "name": "_nftMarketplace",
          "type": "address"
        },
        {
          "internalType": "address",
          "name": "_cryptoDevsNFT",
          "type": "address"
        }
      ],
      "stateMutability": "payable",
      "type": "constructor"
    },
    {
      "anonymous": false,
      "inputs": [
        {
          "indexed": true,
          "internalType": "address",
          "name": "previousOwner",
          "type": "address"
        },
        {
          "indexed": true,
          "internalType": "address",
          "name": "newOwner",
          "type": "address"
        }
      ],
      "name": "OwnershipTransferred",
      "type": "event"
    },
    {
      "stateMutability": "payable",
      "type": "fallback"
    },
    {
      "inputs": [
        {
          "internalType": "uint256",
          "name": "_nftTokenId",
          "type": "uint256"
        },
        {
          "internalType": "string",
          "name": "_title",
          "type": "string"
        }
      ],
      "name": "createProposal",
      "outputs": [
        {
          "internalType": "uint256",
          "name": "",
          "type": "uint256"
        }
      ],
      "stateMutability": "nonpayable",
      "type": "function"
    },
    {
      "inputs": [
        {
          "internalType": "uint256",
          "name": "proposalIndex",
          "type": "uint256"
        }
      ],
      "name": "executeProposal",
      "outputs": [],
      "stateMutability": "nonpayable",
      "type": "function"
    },
    {
      "inputs": [],
      "name": "numProposals",
      "outputs": [
        {
          "internalType": "uint256",
          "name": "",
          "type": "uint256"
        }
      ],
      "stateMutability": "view",
      "type": "function"
    },
    {
      "inputs": [],
      "name": "owner",
      "outputs": [
        {
          "internalType": "address",
          "name": "",
          "type": "address"
        }
      ],
      "stateMutability": "view",
      "type": "function"
    },
    {
      "inputs": [
        {
          "internalType": "uint256",
          "name": "",
          "type": "uint256"
        }
      ],
      "name": "proposals",
      "outputs": [
        {
          "internalType": "string",
          "name": "title",
          "type": "string"
        },
        {
          "internalType": "uint256",
          "name": "nftTokenId",
          "type": "uint256"
        },
        {
          "internalType": "uint256",
          "name": "deadline",
          "type": "uint256"
        },
        {
          "internalType": "uint256",
          "name": "yayVotes",
          "type": "uint256"
        },
        {
          "internalType": "uint256",
          "name": "nayVotes",
          "type": "uint256"
        },
        {
          "internalType": "bool",
          "name": "executed",
          "type": "bool"
        }
      ],
      "stateMutability": "view",
      "type": "function"
    },
    {
      "inputs": [],
      "name": "renounceOwnership",
      "outputs": [],
      "stateMutability": "nonpayable",
      "type": "function"
    },
    {
      "inputs": [
        {
          "internalType": "address",
          "name": "newOwner",
          "type": "address"
        }
      ],
      "name": "transferOwnership",
      "outputs": [],
      "stateMutability": "nonpayable",
      "type": "function"
    },
    {
      "inputs": [
        {
          "internalType": "uint256",
          "name": "proposalIndex",
          "type": "uint256"
        },
        {
          "internalType": "enum CryptoDevsDAO.Vote",
          "name": "vote",
          "type": "uint8"
        }
      ],
      "name": "voteOnProposal",
      "outputs": [],
      "stateMutability": "nonpayable",
      "type": "function"
    },
    {
      "inputs": [],
      "name": "withdrawEther",
      "outputs": [],
      "stateMutability": "nonpayable",
      "type": "function"
    },
    {
      "stateMutability": "payable",
      "type": "receive"
    }
  ],
  "bytecode": "0x608060405260405162001f7f38038062001f7f833981810160405281019062000029919062000209565b620000496200003d620000d360201b60201c565b620000db60201b60201c565b81600360006101000a81548173ffffffffffffffffffffffffffffffffffffffff021916908373ffffffffffffffffffffffffffffffffffffffff16021790555080600460006101000a81548173ffffffffffffffffffffffffffffffffffffffff021916908373ffffffffffffffffffffffffffffffffffffffff160217905550505062000250565b600033905090565b60008060009054906101000a900473ffffffffffffffffffffffffffffffffffffffff169050816000806101000a81548173ffffffffffffffffffffffffffffffffffffffff021916908373ffffffffffffffffffffffffffffffffffffffff1602179055508173ffffffffffffffffffffffffffffffffffffffff168173ffffffffffffffffffffffffffffffffffffffff167f8be0079c531659141344cd1fd0a4f28419497f9722a3daafe3b4186f6b6457e060405160405180910390a35050565b600080fd5b600073ffffffffffffffffffffffffffffffffffffffff82169050919050565b6000620001d182620001a4565b9050919050565b620001e381620001c4565b8114620001ef57600080fd5b50565b6000815190506200020381620001d8565b92915050565b600080604083850312156200022357620002226200019f565b5b60006200023385828601620001f2565b92505060206200024685828601620001f2565b9150509250929050565b611d1f80620002606000396000f3fe60806040526004361061008a5760003560e01c8063715018a611610059578063715018a6146101665780637362377b1461017d5780638da5cb5b14610194578063efafb22e146101bf578063f2fde38b146101e857610091565b8063013cf08b1461009357806302d52fa4146100d55780630d61b51914610112578063400e39491461013b57610091565b3661009157005b005b34801561009f57600080fd5b506100ba60048036038101906100b59190610f5a565b610211565b6040516100cc96959493929190611041565b60405180910390f35b3480156100e157600080fd5b506100fc60048036038101906100f791906111de565b6102e2565b604051610109919061123a565b60405180910390f35b34801561011e57600080fd5b5061013960048036038101906101349190610f5a565b610516565b005b34801561014757600080fd5b5061015061086d565b60405161015d919061123a565b60405180910390f35b34801561017257600080fd5b5061017b610873565b005b34801561018957600080fd5b50610192610887565b005b3480156101a057600080fd5b506101a961098e565b6040516101b69190611296565b60405180910390f35b3480156101cb57600080fd5b506101e660048036038101906101e191906112d6565b6109b7565b005b3480156101f457600080fd5b5061020f600480360381019061020a9190611342565b610d43565b005b60016020528060005260406000206000915090508060000180546102349061139e565b80601f01602080910402602001604051908101604052809291908181526020018280546102609061139e565b80156102ad5780601f10610282576101008083540402835291602001916102ad565b820191906000526020600020905b81548152906001019060200180831161029057829003601f168201915b5050505050908060010154908060020154908060030154908060040154908060050160009054906101000a900460ff16905086565b600080600460009054906101000a900473ffffffffffffffffffffffffffffffffffffffff1673ffffffffffffffffffffffffffffffffffffffff166370a08231336040518263ffffffff1660e01b81526004016103409190611296565b602060405180830381865afa15801561035d573d6000803e3d6000fd5b505050506040513d601f19601f8201168201806040525081019061038191906113e4565b116103c1576040517f08c379a00000000000000000000000000000000000000000000000000000000081526004016103b89061145d565b60405180910390fd5b600360009054906101000a900473ffffffffffffffffffffffffffffffffffffffff1673ffffffffffffffffffffffffffffffffffffffff166396e494e8846040518263ffffffff1660e01b815260040161041c919061123a565b602060405180830381865afa158015610439573d6000803e3d6000fd5b505050506040513d601f19601f8201168201806040525081019061045d91906114a9565b61049c576040517f08c379a000000000000000000000000000000000000000000000000000000000815260040161049390611522565b60405180910390fd5b60006001600060025481526020019081526020016000209050828160000190816104c691906116ee565b5083816001018190555061012c426104de91906117ef565b8160020181905550600260008154809291906104f990611823565b9190505550600160025461050d919061186b565b91505092915050565b6000600460009054906101000a900473ffffffffffffffffffffffffffffffffffffffff1673ffffffffffffffffffffffffffffffffffffffff166370a08231336040518263ffffffff1660e01b81526004016105739190611296565b602060405180830381865afa158015610590573d6000803e3d6000fd5b505050506040513d601f19601f820116820180604052508101906105b491906113e4565b116105f4576040517f08c379a00000000000000000000000000000000000000000000000000000000081526004016105eb9061145d565b60405180910390fd5b80426001600083815260200190815260200160002060020154111561064e576040517f08c379a0000000000000000000000000000000000000000000000000000000008152600401610645906118eb565b60405180910390fd5b600015156001600083815260200190815260200160002060050160009054906101000a900460ff161515146106b8576040517f08c379a00000000000000000000000000000000000000000000000000000000081526004016106af90611957565b60405180910390fd5b600060016000848152602001908152602001600020905080600401548160030154111561084b576000600360009054906101000a900473ffffffffffffffffffffffffffffffffffffffff1673ffffffffffffffffffffffffffffffffffffffff166398d5fdca6040518163ffffffff1660e01b8152600401602060405180830381865afa15801561074e573d6000803e3d6000fd5b505050506040513d601f19601f8201168201806040525081019061077291906113e4565b9050804710156107b7576040517f08c379a00000000000000000000000000000000000000000000000000000000081526004016107ae906119c3565b60405180910390fd5b600360009054906101000a900473ffffffffffffffffffffffffffffffffffffffff1673ffffffffffffffffffffffffffffffffffffffff1663efef39a18284600101546040518363ffffffff1660e01b8152600401610817919061123a565b6000604051808303818588803b15801561083057600080fd5b505af1158015610844573d6000803e3d6000fd5b5050505050505b60018160050160006101000a81548160ff021916908315150217905550505050565b60025481565b61087b610dc6565b6108856000610e44565b565b61088f610dc6565b6000479050600081116108d7576040517f08c379a00000000000000000000000000000000000000000000000000000000081526004016108ce90611a55565b60405180910390fd5b60006108e161098e565b73ffffffffffffffffffffffffffffffffffffffff168260405161090490611aa6565b60006040518083038185875af1925050503d8060008114610941576040519150601f19603f3d011682016040523d82523d6000602084013e610946565b606091505b505090508061098a576040517f08c379a000000000000000000000000000000000000000000000000000000000815260040161098190611b07565b60405180910390fd5b5050565b60008060009054906101000a900473ffffffffffffffffffffffffffffffffffffffff16905090565b6000600460009054906101000a900473ffffffffffffffffffffffffffffffffffffffff1673ffffffffffffffffffffffffffffffffffffffff166370a08231336040518263ffffffff1660e01b8152600401610a149190611296565b602060405180830381865afa158015610a31573d6000803e3d6000fd5b505050506040513d601f19601f82011682018060405250810190610a5591906113e4565b11610a95576040517f08c379a0000000000000000000000000000000000000000000000000000000008152600401610a8c9061145d565b60405180910390fd5b8142600160008381526020019081526020016000206002015411610aee576040517f08c379a0000000000000000000000000000000000000000000000000000000008152600401610ae590611b73565b60405180910390fd5b60006001600085815260200190815260200160002090506000600460009054906101000a900473ffffffffffffffffffffffffffffffffffffffff1673ffffffffffffffffffffffffffffffffffffffff166370a08231336040518263ffffffff1660e01b8152600401610b629190611296565b602060405180830381865afa158015610b7f573d6000803e3d6000fd5b505050506040513d601f19601f82011682018060405250810190610ba391906113e4565b90506000805b82811015610cd2576000600460009054906101000a900473ffffffffffffffffffffffffffffffffffffffff1673ffffffffffffffffffffffffffffffffffffffff16632f745c5933846040518363ffffffff1660e01b8152600401610c10929190611b93565b602060405180830381865afa158015610c2d573d6000803e3d6000fd5b505050506040513d601f19601f82011682018060405250810190610c5191906113e4565b90506000151585600601600083815260200190815260200160002060009054906101000a900460ff16151503610cbe578280610c8c90611823565b935050600185600601600083815260200190815260200160002060006101000a81548160ff0219169083151502179055505b508080610cca90611823565b915050610ba9565b5060006001811115610ce757610ce6611bbc565b5b856001811115610cfa57610cf9611bbc565b5b03610d1f5780836003016000828254610d1391906117ef565b92505081905550610d3b565b80836004016000828254610d3391906117ef565b925050819055505b505050505050565b610d4b610dc6565b600073ffffffffffffffffffffffffffffffffffffffff168173ffffffffffffffffffffffffffffffffffffffff1603610dba576040517f08c379a0000000000000000000000000000000000000000000000000000000008152600401610db190611c5d565b60405180910390fd5b610dc381610e44565b50565b610dce610f08565b73ffffffffffffffffffffffffffffffffffffffff16610dec61098e565b73ffffffffffffffffffffffffffffffffffffffff1614610e42576040517f08c379a0000000000000000000000000000000000000000000000000000000008152600401610e3990611cc9565b60405180910390fd5b565b60008060009054906101000a900473ffffffffffffffffffffffffffffffffffffffff169050816000806101000a81548173ffffffffffffffffffffffffffffffffffffffff021916908373ffffffffffffffffffffffffffffffffffffffff1602179055508173ffffffffffffffffffffffffffffffffffffffff168173ffffffffffffffffffffffffffffffffffffffff167f8be0079c531659141344cd1fd0a4f28419497f9722a3daafe3b4186f6b6457e060405160405180910390a35050565b600033905090565b6000604051905090565b600080fd5b600080fd5b6000819050919050565b610f3781610f24565b8114610f4257600080fd5b50565b600081359050610f5481610f2e565b92915050565b600060208284031215610f7057610f6f610f1a565b5b6000610f7e84828501610f45565b91505092915050565b600081519050919050565b600082825260208201905092915050565b60005b83811015610fc1578082015181840152602081019050610fa6565b60008484015250505050565b6000601f19601f8301169050919050565b6000610fe982610f87565b610ff38185610f92565b9350611003818560208601610fa3565b61100c81610fcd565b840191505092915050565b61102081610f24565b82525050565b60008115159050919050565b61103b81611026565b82525050565b600060c082019050818103600083015261105b8189610fde565b905061106a6020830188611017565b6110776040830187611017565b6110846060830186611017565b6110916080830185611017565b61109e60a0830184611032565b979650505050505050565b600080fd5b600080fd5b7f4e487b7100000000000000000000000000000000000000000000000000000000600052604160045260246000fd5b6110eb82610fcd565b810181811067ffffffffffffffff8211171561110a576111096110b3565b5b80604052505050565b600061111d610f10565b905061112982826110e2565b919050565b600067ffffffffffffffff821115611149576111486110b3565b5b61115282610fcd565b9050602081019050919050565b82818337600083830152505050565b600061118161117c8461112e565b611113565b90508281526020810184848401111561119d5761119c6110ae565b5b6111a884828561115f565b509392505050565b600082601f8301126111c5576111c46110a9565b5b81356111d584826020860161116e565b91505092915050565b600080604083850312156111f5576111f4610f1a565b5b600061120385828601610f45565b925050602083013567ffffffffffffffff81111561122457611223610f1f565b5b611230858286016111b0565b9150509250929050565b600060208201905061124f6000830184611017565b92915050565b600073ffffffffffffffffffffffffffffffffffffffff82169050919050565b600061128082611255565b9050919050565b61129081611275565b82525050565b60006020820190506112ab6000830184611287565b92915050565b600281106112be57600080fd5b50565b6000813590506112d0816112b1565b92915050565b600080604083850312156112ed576112ec610f1a565b5b60006112fb85828601610f45565b925050602061130c858286016112c1565b9150509250929050565b61131f81611275565b811461132a57600080fd5b50565b60008135905061133c81611316565b92915050565b60006020828403121561135857611357610f1a565b5b60006113668482850161132d565b91505092915050565b7f4e487b7100000000000000000000000000000000000000000000000000000000600052602260045260246000fd5b600060028204905060018216806113b657607f821691505b6020821081036113c9576113c861136f565b5b50919050565b6000815190506113de81610f2e565b92915050565b6000602082840312156113fa576113f9610f1a565b5b6000611408848285016113cf565b91505092915050565b7f4e4f545f415f44414f5f4d454d42455200000000000000000000000000000000600082015250565b6000611447601083610f92565b915061145282611411565b602082019050919050565b600060208201905081810360008301526114768161143a565b9050919050565b61148681611026565b811461149157600080fd5b50565b6000815190506114a38161147d565b92915050565b6000602082840312156114bf576114be610f1a565b5b60006114cd84828501611494565b91505092915050565b7f4e46545f4e4f545f464f525f53414c4500000000000000000000000000000000600082015250565b600061150c601083610f92565b9150611517826114d6565b602082019050919050565b6000602082019050818103600083015261153b816114ff565b9050919050565b60008190508160005260206000209050919050565b60006020601f8301049050919050565b600082821b905092915050565b6000600883026115a47fffffffffffffffffffffffffffffffffffffffffffffffffffffffffffffffff82611567565b6115ae8683611567565b95508019841693508086168417925050509392505050565b6000819050919050565b60006115eb6115e66115e184610f24565b6115c6565b610f24565b9050919050565b6000819050919050565b611605836115d0565b611619611611826115f2565b848454611574565b825550505050565b600090565b61162e611621565b6116398184846115fc565b505050565b5b8181101561165d57611652600082611626565b60018101905061163f565b5050565b601f8211156116a25761167381611542565b61167c84611557565b8101602085101561168b578190505b61169f61169785611557565b83018261163e565b50505b505050565b600082821c905092915050565b60006116c5600019846008026116a7565b1980831691505092915050565b60006116de83836116b4565b9150826002028217905092915050565b6116f782610f87565b67ffffffffffffffff8111156117105761170f6110b3565b5b61171a825461139e565b611725828285611661565b600060209050601f8311600181146117585760008415611746578287015190505b61175085826116d2565b8655506117b8565b601f19841661176686611542565b60005b8281101561178e57848901518255600182019150602085019450602081019050611769565b868310156117ab57848901516117a7601f8916826116b4565b8355505b6001600288020188555050505b505050505050565b7f4e487b7100000000000000000000000000000000000000000000000000000000600052601160045260246000fd5b60006117fa82610f24565b915061180583610f24565b925082820190508082111561181d5761181c6117c0565b5b92915050565b600061182e82610f24565b91507fffffffffffffffffffffffffffffffffffffffffffffffffffffffffffffffff82036118605761185f6117c0565b5b600182019050919050565b600061187682610f24565b915061188183610f24565b9250828203905081811115611899576118986117c0565b5b92915050565b7f446561646c696e655f6e6f745f65786365656465640000000000000000000000600082015250565b60006118d5601583610f92565b91506118e08261189f565b602082019050919050565b60006020820190508181036000830152611904816118c8565b9050919050565b7f50726f706f73616c5f616c72656164795f657865637574656400000000000000600082015250565b6000611941601983610f92565b915061194c8261190b565b602082019050919050565b6000602082019050818103600083015261197081611934565b9050919050565b7f4e4f545f454e4f5547485f46554e445300000000000000000000000000000000600082015250565b60006119ad601083610f92565b91506119b882611977565b602082019050919050565b600060208201905081810360008301526119dc816119a0565b9050919050565b7f4e6f7468696e6720746f2077697468647261772c636f6e74726163742062616c60008201527f616e636520656d70747900000000000000000000000000000000000000000000602082015250565b6000611a3f602a83610f92565b9150611a4a826119e3565b604082019050919050565b60006020820190508181036000830152611a6e81611a32565b9050919050565b600081905092915050565b50565b6000611a90600083611a75565b9150611a9b82611a80565b600082019050919050565b6000611ab182611a83565b9150819050919050565b7f4641494c45445f544f5f57495448445241575f45544845520000000000000000600082015250565b6000611af1601883610f92565b9150611afc82611abb565b602082019050919050565b60006020820190508181036000830152611b2081611ae4565b9050919050565b7f444541444c494e455f4558434545444544000000000000000000000000000000600082015250565b6000611b5d601183610f92565b9150611b6882611b27565b602082019050919050565b60006020820190508181036000830152611b8c81611b50565b9050919050565b6000604082019050611ba86000830185611287565b611bb56020830184611017565b9392505050565b7f4e487b7100000000000000000000000000000000000000000000000000000000600052602160045260246000fd5b7f4f776e61626c653a206e6577206f776e657220697320746865207a65726f206160008201527f6464726573730000000000000000000000000000000000000000000000000000602082015250565b6000611c47602683610f92565b9150611c5282611beb565b604082019050919050565b60006020820190508181036000830152611c7681611c3a565b9050919050565b7f4f776e61626c653a2063616c6c6572206973206e6f7420746865206f776e6572600082015250565b6000611cb3602083610f92565b9150611cbe82611c7d565b602082019050919050565b60006020820190508181036000830152611ce281611ca6565b905091905056fea2646970667358221220e161910c5c6f9af8b8b77165c1523a679a7a0b38c3ac369739fb89bbdaae85d864736f6c63430008120033",
  "linkReferences": {},
  "deployedLinkReferences": {}
}