{
  "_format": "hh-sol-artifact-1",
  "contractName": "CryptoDevsNFT",
  "sourceName": "contracts/CryptoDevsNFT.sol",
  "abi": [
    {
      "inputs": [],
      "stateMutability": "nonpayable",
      "type": "constructor"
    },
    {
      "anonymous": false,
      "inputs": [
        {
          "indexed": true,
          "internalType": "address",
          "name": "owner",
          "type": "address"
        },
        {
          "indexed": true,
          "internalType": "address",
          "name": "approved",
          "type": "address"
        },
        {
          "indexed": true,
          "internalType": "uint256",
          "name": "tokenId",
          "type": "uint256"
        }
      ],
      "name": "Approval",
      "type": "event"
    },
    {
      "anonymous": false,
      "inputs": [
        {
          "indexed": true,
          "internalType": "address",
          "name": "owner",
          "type": "address"
        },
        {
          "indexed": true,
          "internalType": "address",
          "name": "operator",
          "type": "address"
        },
        {
          "indexed": false,
          "internalType": "bool",
          "name": "approved",
          "type": "bool"
        }
      ],
      "name": "ApprovalForAll",
      "type": "event"
    },
    {
      "anonymous": false,
      "inputs": [
        {
          "indexed": true,
          "internalType": "address",
          "name": "from",
          "type": "address"
        },
        {
          "indexed": true,
          "internalType": "address",
          "name": "to",
          "type": "address"
        },
        {
          "indexed": true,
          "internalType": "uint256",
          "name": "tokenId",
          "type": "uint256"
        }
      ],
      "name": "Transfer",
      "type": "event"
    },
    {
      "inputs": [
        {
          "internalType": "address",
          "name": "to",
          "type": "address"
        },
        {
          "internalType": "uint256",
          "name": "tokenId",
          "type": "uint256"
        }
      ],
      "name": "approve",
      "outputs": [],
      "stateMutability": "nonpayable",
      "type": "function"
    },
    {
      "inputs": [
        {
          "internalType": "address",
          "name": "owner",
          "type": "address"
        }
      ],
      "name": "balanceOf",
      "outputs": [
        {
          "internalType": "uint256",
          "name": "",
          "type": "uint256"
        }
      ],
      "stateMutability": "view",
      "type": "function"
    },
    {
      "inputs": [
        {
          "internalType": "uint256",
          "name": "tokenId",
          "type": "uint256"
        }
      ],
      "name": "getApproved",
      "outputs": [
        {
          "internalType": "address",
          "name": "",
          "type": "address"
        }
      ],
      "stateMutability": "view",
      "type": "function"
    },
    {
      "inputs": [
        {
          "internalType": "address",
          "name": "owner",
          "type": "address"
        },
        {
          "internalType": "address",
          "name": "operator",
          "type": "address"
        }
      ],
      "name": "isApprovedForAll",
      "outputs": [
        {
          "internalType": "bool",
          "name": "",
          "type": "bool"
        }
      ],
      "stateMutability": "view",
      "type": "function"
    },
    {
      "inputs": [],
      "name": "mint",
      "outputs": [],
      "stateMutability": "nonpayable",
      "type": "function"
    },
    {
      "inputs": [],
      "name": "name",
      "outputs": [
        {
          "internalType": "string",
          "name": "",
          "type": "string"
        }
      ],
      "stateMutability": "view",
      "type": "function"
    },
    {
      "inputs": [
        {
          "internalType": "uint256",
          "name": "tokenId",
          "type": "uint256"
        }
      ],
      "name": "ownerOf",
      "outputs": [
        {
          "internalType": "address",
          "name": "",
          "type": "address"
        }
      ],
      "stateMutability": "view",
      "type": "function"
    },
    {
      "inputs": [
        {
          "internalType": "address",
          "name": "from",
          "type": "address"
        },
        {
          "internalType": "address",
          "name": "to",
          "type": "address"
        },
        {
          "internalType": "uint256",
          "name": "tokenId",
          "type": "uint256"
        }
      ],
      "name": "safeTransferFrom",
      "outputs": [],
      "stateMutability": "nonpayable",
      "type": "function"
    },
    {
      "inputs": [
        {
          "internalType": "address",
          "name": "from",
          "type": "address"
        },
        {
          "internalType": "address",
          "name": "to",
          "type": "address"
        },
        {
          "internalType": "uint256",
          "name": "tokenId",
          "type": "uint256"
        },
        {
          "internalType": "bytes",
          "name": "data",
          "type": "bytes"
        }
      ],
      "name": "safeTransferFrom",
      "outputs": [],
      "stateMutability": "nonpayable",
      "type": "function"
    },
    {
      "inputs": [
        {
          "internalType": "address",
          "name": "operator",
          "type": "address"
        },
        {
          "internalType": "bool",
          "name": "approved",
          "type": "bool"
        }
      ],
      "name": "setApprovalForAll",
      "outputs": [],
      "stateMutability": "nonpayable",
      "type": "function"
    },
    {
      "inputs": [
        {
          "internalType": "bytes4",
          "name": "interfaceId",
          "type": "bytes4"
        }
      ],
      "name": "supportsInterface",
      "outputs": [
        {
          "internalType": "bool",
          "name": "",
          "type": "bool"
        }
      ],
      "stateMutability": "view",
      "type": "function"
    },
    {
      "inputs": [],
      "name": "symbol",
      "outputs": [
        {
          "internalType": "string",
          "name": "",
          "type": "string"
        }
      ],
      "stateMutability": "view",
      "type": "function"
    },
    {
      "inputs": [
        {
          "internalType": "uint256",
          "name": "index",
          "type": "uint256"
        }
      ],
      "name": "tokenByIndex",
      "outputs": [
        {
          "internalType": "uint256",
          "name": "",
          "type": "uint256"
        }
      ],
      "stateMutability": "view",
      "type": "function"
    },
    {
      "inputs": [
        {
          "internalType": "address",
          "name": "owner",
          "type": "address"
        },
        {
          "internalType": "uint256",
          "name": "index",
          "type": "uint256"
        }
      ],
      "name": "tokenOfOwnerByIndex",
      "outputs": [
        {
          "internalType": "uint256",
          "name": "",
          "type": "uint256"
        }
      ],
      "stateMutability": "view",
      "type": "function"
    },
    {
      "inputs": [
        {
          "internalType": "uint256",
          "name": "tokenId",
          "type": "uint256"
        }
      ],
      "name": "tokenURI",
      "outputs": [
        {
          "internalType": "string",
          "name": "",
          "type": "string"
        }
      ],
      "stateMutability": "view",
      "type": "function"
    },
    {
      "inputs": [],
      "name": "totalSupply",
      "outputs": [
        {
          "internalType": "uint256",
          "name": "",
          "type": "uint256"
        }
      ],
      "stateMutability": "view",
      "type": "function"
    },
    {
      "inputs": [
        {
          "internalType": "address",
          "name": "from",
          "type": "address"
        },
        {
          "internalType": "address",
          "name": "to",
          "type": "address"
        },
        {
          "internalType": "uint256",
          "name": "tokenId",
          "type": "uint256"
        }
      ],
      "name": "transferFrom",
      "outputs": [],
      "stateMutability": "nonpayable",
      "type": "function"
    }
  ],
  "bytecode": "0x60806040523480156200001157600080fd5b506040518060400160405280600a81526020017f43727970746f44657673000000000000000000000000000000000000000000008152506040518060400160405280600281526020017f434400000000000000000000000000000000000000000000000000000000000081525081600090816200008f919062000324565b508060019081620000a1919062000324565b5050506200040b565b600081519050919050565b7f4e487b7100000000000000000000000000000000000000000000000000000000600052604160045260246000fd5b7f4e487b7100000000000000000000000000000000000000000000000000000000600052602260045260246000fd5b600060028204905060018216806200012c57607f821691505b602082108103620001425762000141620000e4565b5b50919050565b60008190508160005260206000209050919050565b60006020601f8301049050919050565b600082821b905092915050565b600060088302620001ac7fffffffffffffffffffffffffffffffffffffffffffffffffffffffffffffffff826200016d565b620001b886836200016d565b95508019841693508086168417925050509392505050565b6000819050919050565b6000819050919050565b600062000205620001ff620001f984620001d0565b620001da565b620001d0565b9050919050565b6000819050919050565b6200022183620001e4565b6200023962000230826200020c565b8484546200017a565b825550505050565b600090565b6200025062000241565b6200025d81848462000216565b505050565b5b8181101562000285576200027960008262000246565b60018101905062000263565b5050565b601f821115620002d4576200029e8162000148565b620002a9846200015d565b81016020851015620002b9578190505b620002d1620002c8856200015d565b83018262000262565b50505b505050565b600082821c905092915050565b6000620002f960001984600802620002d9565b1980831691505092915050565b6000620003148383620002e6565b9150826002028217905092915050565b6200032f82620000aa565b67ffffffffffffffff8111156200034b576200034a620000b5565b5b62000357825462000113565b6200036482828562000289565b600060209050601f8311600181146200039c576000841562000387578287015190505b62000393858262000306565b86555062000403565b601f198416620003ac8662000148565b60005b82811015620003d657848901518255600182019150602085019450602081019050620003af565b86831015620003f65784890151620003f2601f891682620002e6565b8355505b6001600288020188555050505b505050505050565b612ddd806200041b6000396000f3fe608060405234801561001057600080fd5b506004361061010b5760003560e01c806342842e0e116100a257806395d89b411161007157806395d89b41146102ca578063a22cb465146102e8578063b88d4fde14610304578063c87b56dd14610320578063e985e9c5146103505761010b565b806342842e0e1461021e5780634f6ccce71461023a5780636352211e1461026a57806370a082311461029a5761010b565b80631249c58b116100de5780631249c58b146101aa57806318160ddd146101b457806323b872dd146101d25780632f745c59146101ee5761010b565b806301ffc9a71461011057806306fdde0314610140578063081812fc1461015e578063095ea7b31461018e575b600080fd5b61012a60048036038101906101259190611e62565b610380565b6040516101379190611eaa565b60405180910390f35b6101486103fa565b6040516101559190611f55565b60405180910390f35b61017860048036038101906101739190611fad565b61048c565b604051610185919061201b565b60405180910390f35b6101a860048036038101906101a39190612062565b6104d2565b005b6101b26105e9565b005b6101bc6105fc565b6040516101c991906120b1565b60405180910390f35b6101ec60048036038101906101e791906120cc565b610609565b005b61020860048036038101906102039190612062565b610669565b60405161021591906120b1565b60405180910390f35b610238600480360381019061023391906120cc565b61070e565b005b610254600480360381019061024f9190611fad565b61072e565b60405161026191906120b1565b60405180910390f35b610284600480360381019061027f9190611fad565b61079f565b604051610291919061201b565b60405180910390f35b6102b460048036038101906102af919061211f565b610825565b6040516102c191906120b1565b60405180910390f35b6102d26108dc565b6040516102df9190611f55565b60405180910390f35b61030260048036038101906102fd9190612178565b61096e565b005b61031e600480360381019061031991906122ed565b610984565b005b61033a60048036038101906103359190611fad565b6109e6565b6040516103479190611f55565b60405180910390f35b61036a60048036038101906103659190612370565b610a4e565b6040516103779190611eaa565b60405180910390f35b60007f780e9d63000000000000000000000000000000000000000000000000000000007bffffffffffffffffffffffffffffffffffffffffffffffffffffffff1916827bffffffffffffffffffffffffffffffffffffffffffffffffffffffff191614806103f357506103f282610ae2565b5b9050919050565b606060008054610409906123df565b80601f0160208091040260200160405190810160405280929190818152602001828054610435906123df565b80156104825780601f1061045757610100808354040283529160200191610482565b820191906000526020600020905b81548152906001019060200180831161046557829003601f168201915b5050505050905090565b600061049782610bc4565b6004600083815260200190815260200160002060009054906101000a900473ffffffffffffffffffffffffffffffffffffffff169050919050565b60006104dd8261079f565b90508073ffffffffffffffffffffffffffffffffffffffff168373ffffffffffffffffffffffffffffffffffffffff160361054d576040517f08c379a000000000000000000000000000000000000000000000000000000000815260040161054490612482565b60405180910390fd5b8073ffffffffffffffffffffffffffffffffffffffff1661056c610c0f565b73ffffffffffffffffffffffffffffffffffffffff16148061059b575061059a81610595610c0f565b610a4e565b5b6105da576040517f08c379a00000000000000000000000000000000000000000000000000000000081526004016105d190612514565b60405180910390fd5b6105e48383610c17565b505050565b6105fa336105f56105fc565b610cd0565b565b6000600880549050905090565b61061a610614610c0f565b82610cee565b610659576040517f08c379a0000000000000000000000000000000000000000000000000000000008152600401610650906125a6565b60405180910390fd5b610664838383610d83565b505050565b600061067483610825565b82106106b5576040517f08c379a00000000000000000000000000000000000000000000000000000000081526004016106ac90612638565b60405180910390fd5b600660008473ffffffffffffffffffffffffffffffffffffffff1673ffffffffffffffffffffffffffffffffffffffff168152602001908152602001600020600083815260200190815260200160002054905092915050565b61072983838360405180602001604052806000815250610984565b505050565b60006107386105fc565b8210610779576040517f08c379a0000000000000000000000000000000000000000000000000000000008152600401610770906126ca565b60405180910390fd5b6008828154811061078d5761078c6126ea565b5b90600052602060002001549050919050565b6000806107ab8361107c565b9050600073ffffffffffffffffffffffffffffffffffffffff168173ffffffffffffffffffffffffffffffffffffffff160361081c576040517f08c379a000000000000000000000000000000000000000000000000000000000815260040161081390612765565b60405180910390fd5b80915050919050565b60008073ffffffffffffffffffffffffffffffffffffffff168273ffffffffffffffffffffffffffffffffffffffff1603610895576040517f08c379a000000000000000000000000000000000000000000000000000000000815260040161088c906127f7565b60405180910390fd5b600360008373ffffffffffffffffffffffffffffffffffffffff1673ffffffffffffffffffffffffffffffffffffffff168152602001908152602001600020549050919050565b6060600180546108eb906123df565b80601f0160208091040260200160405190810160405280929190818152602001828054610917906123df565b80156109645780601f1061093957610100808354040283529160200191610964565b820191906000526020600020905b81548152906001019060200180831161094757829003601f168201915b5050505050905090565b610980610979610c0f565b83836110b9565b5050565b61099561098f610c0f565b83610cee565b6109d4576040517f08c379a00000000000000000000000000000000000000000000000000000000081526004016109cb906125a6565b60405180910390fd5b6109e084848484611225565b50505050565b60606109f182610bc4565b60006109fb611281565b90506000815111610a1b5760405180602001604052806000815250610a46565b80610a2584611298565b604051602001610a36929190612853565b6040516020818303038152906040525b915050919050565b6000600560008473ffffffffffffffffffffffffffffffffffffffff1673ffffffffffffffffffffffffffffffffffffffff16815260200190815260200160002060008373ffffffffffffffffffffffffffffffffffffffff1673ffffffffffffffffffffffffffffffffffffffff16815260200190815260200160002060009054906101000a900460ff16905092915050565b60007f80ac58cd000000000000000000000000000000000000000000000000000000007bffffffffffffffffffffffffffffffffffffffffffffffffffffffff1916827bffffffffffffffffffffffffffffffffffffffffffffffffffffffff19161480610bad57507f5b5e139f000000000000000000000000000000000000000000000000000000007bffffffffffffffffffffffffffffffffffffffffffffffffffffffff1916827bffffffffffffffffffffffffffffffffffffffffffffffffffffffff1916145b80610bbd5750610bbc82611366565b5b9050919050565b610bcd816113d0565b610c0c576040517f08c379a0000000000000000000000000000000000000000000000000000000008152600401610c0390612765565b60405180910390fd5b50565b600033905090565b816004600083815260200190815260200160002060006101000a81548173ffffffffffffffffffffffffffffffffffffffff021916908373ffffffffffffffffffffffffffffffffffffffff160217905550808273ffffffffffffffffffffffffffffffffffffffff16610c8a8361079f565b73ffffffffffffffffffffffffffffffffffffffff167f8c5be1e5ebec7d5bd14f71427d1e84f3dd0314c0f7b2291e5b200ac8c7c3b92560405160405180910390a45050565b610cea828260405180602001604052806000815250611411565b5050565b600080610cfa8361079f565b90508073ffffffffffffffffffffffffffffffffffffffff168473ffffffffffffffffffffffffffffffffffffffff161480610d3c5750610d3b8185610a4e565b5b80610d7a57508373ffffffffffffffffffffffffffffffffffffffff16610d628461048c565b73ffffffffffffffffffffffffffffffffffffffff16145b91505092915050565b8273ffffffffffffffffffffffffffffffffffffffff16610da38261079f565b73ffffffffffffffffffffffffffffffffffffffff1614610df9576040517f08c379a0000000000000000000000000000000000000000000000000000000008152600401610df0906128e9565b60405180910390fd5b600073ffffffffffffffffffffffffffffffffffffffff168273ffffffffffffffffffffffffffffffffffffffff1603610e68576040517f08c379a0000000000000000000000000000000000000000000000000000000008152600401610e5f9061297b565b60405180910390fd5b610e75838383600161146c565b8273ffffffffffffffffffffffffffffffffffffffff16610e958261079f565b73ffffffffffffffffffffffffffffffffffffffff1614610eeb576040517f08c379a0000000000000000000000000000000000000000000000000000000008152600401610ee2906128e9565b60405180910390fd5b6004600082815260200190815260200160002060006101000a81549073ffffffffffffffffffffffffffffffffffffffff02191690556001600360008573ffffffffffffffffffffffffffffffffffffffff1673ffffffffffffffffffffffffffffffffffffffff168152602001908152602001600020600082825403925050819055506001600360008473ffffffffffffffffffffffffffffffffffffffff1673ffffffffffffffffffffffffffffffffffffffff16815260200190815260200160002060008282540192505081905550816002600083815260200190815260200160002060006101000a81548173ffffffffffffffffffffffffffffffffffffffff021916908373ffffffffffffffffffffffffffffffffffffffff160217905550808273ffffffffffffffffffffffffffffffffffffffff168473ffffffffffffffffffffffffffffffffffffffff167fddf252ad1be2c89b69c2b068fc378daa952ba7f163c4a11628f55a4df523b3ef60405160405180910390a461107783838360016115ca565b505050565b60006002600083815260200190815260200160002060009054906101000a900473ffffffffffffffffffffffffffffffffffffffff169050919050565b8173ffffffffffffffffffffffffffffffffffffffff168373ffffffffffffffffffffffffffffffffffffffff1603611127576040517f08c379a000000000000000000000000000000000000000000000000000000000815260040161111e906129e7565b60405180910390fd5b80600560008573ffffffffffffffffffffffffffffffffffffffff1673ffffffffffffffffffffffffffffffffffffffff16815260200190815260200160002060008473ffffffffffffffffffffffffffffffffffffffff1673ffffffffffffffffffffffffffffffffffffffff16815260200190815260200160002060006101000a81548160ff0219169083151502179055508173ffffffffffffffffffffffffffffffffffffffff168373ffffffffffffffffffffffffffffffffffffffff167f17307eab39ab6107e8899845ad3d59bd9653f200f220920489ca2b5937696c31836040516112189190611eaa565b60405180910390a3505050565b611230848484610d83565b61123c848484846115d0565b61127b576040517f08c379a000000000000000000000000000000000000000000000000000000000815260040161127290612a79565b60405180910390fd5b50505050565b606060405180602001604052806000815250905090565b6060600060016112a784611757565b01905060008167ffffffffffffffff8111156112c6576112c56121c2565b5b6040519080825280601f01601f1916602001820160405280156112f85781602001600182028036833780820191505090505b509050600082602001820190505b60011561135b578080600190039150507f3031323334353637383961626364656600000000000000000000000000000000600a86061a8153600a858161134f5761134e612a99565b5b04945060008503611306575b819350505050919050565b60007f01ffc9a7000000000000000000000000000000000000000000000000000000007bffffffffffffffffffffffffffffffffffffffffffffffffffffffff1916827bffffffffffffffffffffffffffffffffffffffffffffffffffffffff1916149050919050565b60008073ffffffffffffffffffffffffffffffffffffffff166113f28361107c565b73ffffffffffffffffffffffffffffffffffffffff1614159050919050565b61141b83836118aa565b61142860008484846115d0565b611467576040517f08c379a000000000000000000000000000000000000000000000000000000000815260040161145e90612a79565b60405180910390fd5b505050565b61147884848484611ac7565b60018111156114bc576040517f08c379a00000000000000000000000000000000000000000000000000000000081526004016114b390612b3a565b60405180910390fd5b6000829050600073ffffffffffffffffffffffffffffffffffffffff168573ffffffffffffffffffffffffffffffffffffffff1603611503576114fe81611acd565b611542565b8373ffffffffffffffffffffffffffffffffffffffff168573ffffffffffffffffffffffffffffffffffffffff1614611541576115408582611b16565b5b5b600073ffffffffffffffffffffffffffffffffffffffff168473ffffffffffffffffffffffffffffffffffffffff16036115845761157f81611c83565b6115c3565b8473ffffffffffffffffffffffffffffffffffffffff168473ffffffffffffffffffffffffffffffffffffffff16146115c2576115c18482611d54565b5b5b5050505050565b50505050565b60006115f18473ffffffffffffffffffffffffffffffffffffffff16611dd3565b1561174a578373ffffffffffffffffffffffffffffffffffffffff1663150b7a0261161a610c0f565b8786866040518563ffffffff1660e01b815260040161163c9493929190612baf565b6020604051808303816000875af192505050801561167857506040513d601f19601f820116820180604052508101906116759190612c10565b60015b6116fa573d80600081146116a8576040519150601f19603f3d011682016040523d82523d6000602084013e6116ad565b606091505b5060008151036116f2576040517f08c379a00000000000000000000000000000000000000000000000000000000081526004016116e990612a79565b60405180910390fd5b805181602001fd5b63150b7a0260e01b7bffffffffffffffffffffffffffffffffffffffffffffffffffffffff1916817bffffffffffffffffffffffffffffffffffffffffffffffffffffffff19161491505061174f565b600190505b949350505050565b600080600090507a184f03e93ff9f4daa797ed6e38ed64bf6a1f01000000000000000083106117b5577a184f03e93ff9f4daa797ed6e38ed64bf6a1f01000000000000000083816117ab576117aa612a99565b5b0492506040810190505b6d04ee2d6d415b85acef810000000083106117f2576d04ee2d6d415b85acef810000000083816117e8576117e7612a99565b5b0492506020810190505b662386f26fc10000831061182157662386f26fc10000838161181757611816612a99565b5b0492506010810190505b6305f5e100831061184a576305f5e10083816118405761183f612a99565b5b0492506008810190505b612710831061186f57612710838161186557611864612a99565b5b0492506004810190505b60648310611892576064838161188857611887612a99565b5b0492506002810190505b600a83106118a1576001810190505b80915050919050565b600073ffffffffffffffffffffffffffffffffffffffff168273ffffffffffffffffffffffffffffffffffffffff1603611919576040517f08c379a000000000000000000000000000000000000000000000000000000000815260040161191090612c89565b60405180910390fd5b611922816113d0565b15611962576040517f08c379a000000000000000000000000000000000000000000000000000000000815260040161195990612cf5565b60405180910390fd5b61197060008383600161146c565b611979816113d0565b156119b9576040517f08c379a00000000000000000000000000000000000000000000000000000000081526004016119b090612cf5565b60405180910390fd5b6001600360008473ffffffffffffffffffffffffffffffffffffffff1673ffffffffffffffffffffffffffffffffffffffff16815260200190815260200160002060008282540192505081905550816002600083815260200190815260200160002060006101000a81548173ffffffffffffffffffffffffffffffffffffffff021916908373ffffffffffffffffffffffffffffffffffffffff160217905550808273ffffffffffffffffffffffffffffffffffffffff16600073ffffffffffffffffffffffffffffffffffffffff167fddf252ad1be2c89b69c2b068fc378daa952ba7f163c4a11628f55a4df523b3ef60405160405180910390a4611ac36000838360016115ca565b5050565b50505050565b6008805490506009600083815260200190815260200160002081905550600881908060018154018082558091505060019003906000526020600020016000909190919091505550565b60006001611b2384610825565b611b2d9190612d44565b9050600060076000848152602001908152602001600020549050818114611c12576000600660008673ffffffffffffffffffffffffffffffffffffffff1673ffffffffffffffffffffffffffffffffffffffff168152602001908152602001600020600084815260200190815260200160002054905080600660008773ffffffffffffffffffffffffffffffffffffffff1673ffffffffffffffffffffffffffffffffffffffff168152602001908152602001600020600084815260200190815260200160002081905550816007600083815260200190815260200160002081905550505b6007600084815260200190815260200160002060009055600660008573ffffffffffffffffffffffffffffffffffffffff1673ffffffffffffffffffffffffffffffffffffffff16815260200190815260200160002060008381526020019081526020016000206000905550505050565b60006001600880549050611c979190612d44565b9050600060096000848152602001908152602001600020549050600060088381548110611cc757611cc66126ea565b5b906000526020600020015490508060088381548110611ce957611ce86126ea565b5b906000526020600020018190555081600960008381526020019081526020016000208190555060096000858152602001908152602001600020600090556008805480611d3857611d37612d78565b5b6001900381819060005260206000200160009055905550505050565b6000611d5f83610825565b905081600660008573ffffffffffffffffffffffffffffffffffffffff1673ffffffffffffffffffffffffffffffffffffffff168152602001908152602001600020600083815260200190815260200160002081905550806007600084815260200190815260200160002081905550505050565b6000808273ffffffffffffffffffffffffffffffffffffffff163b119050919050565b6000604051905090565b600080fd5b600080fd5b60007fffffffff0000000000000000000000000000000000000000000000000000000082169050919050565b611e3f81611e0a565b8114611e4a57600080fd5b50565b600081359050611e5c81611e36565b92915050565b600060208284031215611e7857611e77611e00565b5b6000611e8684828501611e4d565b91505092915050565b60008115159050919050565b611ea481611e8f565b82525050565b6000602082019050611ebf6000830184611e9b565b92915050565b600081519050919050565b600082825260208201905092915050565b60005b83811015611eff578082015181840152602081019050611ee4565b60008484015250505050565b6000601f19601f8301169050919050565b6000611f2782611ec5565b611f318185611ed0565b9350611f41818560208601611ee1565b611f4a81611f0b565b840191505092915050565b60006020820190508181036000830152611f6f8184611f1c565b905092915050565b6000819050919050565b611f8a81611f77565b8114611f9557600080fd5b50565b600081359050611fa781611f81565b92915050565b600060208284031215611fc357611fc2611e00565b5b6000611fd184828501611f98565b91505092915050565b600073ffffffffffffffffffffffffffffffffffffffff82169050919050565b600061200582611fda565b9050919050565b61201581611ffa565b82525050565b6000602082019050612030600083018461200c565b92915050565b61203f81611ffa565b811461204a57600080fd5b50565b60008135905061205c81612036565b92915050565b6000806040838503121561207957612078611e00565b5b60006120878582860161204d565b925050602061209885828601611f98565b9150509250929050565b6120ab81611f77565b82525050565b60006020820190506120c660008301846120a2565b92915050565b6000806000606084860312156120e5576120e4611e00565b5b60006120f38682870161204d565b93505060206121048682870161204d565b925050604061211586828701611f98565b9150509250925092565b60006020828403121561213557612134611e00565b5b60006121438482850161204d565b91505092915050565b61215581611e8f565b811461216057600080fd5b50565b6000813590506121728161214c565b92915050565b6000806040838503121561218f5761218e611e00565b5b600061219d8582860161204d565b92505060206121ae85828601612163565b9150509250929050565b600080fd5b600080fd5b7f4e487b7100000000000000000000000000000000000000000000000000000000600052604160045260246000fd5b6121fa82611f0b565b810181811067ffffffffffffffff82111715612219576122186121c2565b5b80604052505050565b600061222c611df6565b905061223882826121f1565b919050565b600067ffffffffffffffff821115612258576122576121c2565b5b61226182611f0b565b9050602081019050919050565b82818337600083830152505050565b600061229061228b8461223d565b612222565b9050828152602081018484840111156122ac576122ab6121bd565b5b6122b784828561226e565b509392505050565b600082601f8301126122d4576122d36121b8565b5b81356122e484826020860161227d565b91505092915050565b6000806000806080858703121561230757612306611e00565b5b60006123158782880161204d565b94505060206123268782880161204d565b935050604061233787828801611f98565b925050606085013567ffffffffffffffff81111561235857612357611e05565b5b612364878288016122bf565b91505092959194509250565b6000806040838503121561238757612386611e00565b5b60006123958582860161204d565b92505060206123a68582860161204d565b9150509250929050565b7f4e487b7100000000000000000000000000000000000000000000000000000000600052602260045260246000fd5b600060028204905060018216806123f757607f821691505b60208210810361240a576124096123b0565b5b50919050565b7f4552433732313a20617070726f76616c20746f2063757272656e74206f776e6560008201527f7200000000000000000000000000000000000000000000000000000000000000602082015250565b600061246c602183611ed0565b915061247782612410565b604082019050919050565b6000602082019050818103600083015261249b8161245f565b9050919050565b7f4552433732313a20617070726f76652063616c6c6572206973206e6f7420746f60008201527f6b656e206f776e6572206f7220617070726f76656420666f7220616c6c000000602082015250565b60006124fe603d83611ed0565b9150612509826124a2565b604082019050919050565b6000602082019050818103600083015261252d816124f1565b9050919050565b7f4552433732313a2063616c6c6572206973206e6f7420746f6b656e206f776e6560008201527f72206f7220617070726f76656400000000000000000000000000000000000000602082015250565b6000612590602d83611ed0565b915061259b82612534565b604082019050919050565b600060208201905081810360008301526125bf81612583565b9050919050565b7f455243373231456e756d657261626c653a206f776e657220696e646578206f7560008201527f74206f6620626f756e6473000000000000000000000000000000000000000000602082015250565b6000612622602b83611ed0565b915061262d826125c6565b604082019050919050565b6000602082019050818103600083015261265181612615565b9050919050565b7f455243373231456e756d657261626c653a20676c6f62616c20696e646578206f60008201527f7574206f6620626f756e64730000000000000000000000000000000000000000602082015250565b60006126b4602c83611ed0565b91506126bf82612658565b604082019050919050565b600060208201905081810360008301526126e3816126a7565b9050919050565b7f4e487b7100000000000000000000000000000000000000000000000000000000600052603260045260246000fd5b7f4552433732313a20696e76616c696420746f6b656e2049440000000000000000600082015250565b600061274f601883611ed0565b915061275a82612719565b602082019050919050565b6000602082019050818103600083015261277e81612742565b9050919050565b7f4552433732313a2061646472657373207a65726f206973206e6f74206120766160008201527f6c6964206f776e65720000000000000000000000000000000000000000000000602082015250565b60006127e1602983611ed0565b91506127ec82612785565b604082019050919050565b60006020820190508181036000830152612810816127d4565b9050919050565b600081905092915050565b600061282d82611ec5565b6128378185612817565b9350612847818560208601611ee1565b80840191505092915050565b600061285f8285612822565b915061286b8284612822565b91508190509392505050565b7f4552433732313a207472616e736665722066726f6d20696e636f72726563742060008201527f6f776e6572000000000000000000000000000000000000000000000000000000602082015250565b60006128d3602583611ed0565b91506128de82612877565b604082019050919050565b60006020820190508181036000830152612902816128c6565b9050919050565b7f4552433732313a207472616e7366657220746f20746865207a65726f2061646460008201527f7265737300000000000000000000000000000000000000000000000000000000602082015250565b6000612965602483611ed0565b915061297082612909565b604082019050919050565b6000602082019050818103600083015261299481612958565b9050919050565b7f4552433732313a20617070726f766520746f2063616c6c657200000000000000600082015250565b60006129d1601983611ed0565b91506129dc8261299b565b602082019050919050565b60006020820190508181036000830152612a00816129c4565b9050919050565b7f4552433732313a207472616e7366657220746f206e6f6e20455243373231526560008201527f63656976657220696d706c656d656e7465720000000000000000000000000000602082015250565b6000612a63603283611ed0565b9150612a6e82612a07565b604082019050919050565b60006020820190508181036000830152612a9281612a56565b9050919050565b7f4e487b7100000000000000000000000000000000000000000000000000000000600052601260045260246000fd5b7f455243373231456e756d657261626c653a20636f6e736563757469766520747260008201527f616e7366657273206e6f7420737570706f727465640000000000000000000000602082015250565b6000612b24603583611ed0565b9150612b2f82612ac8565b604082019050919050565b60006020820190508181036000830152612b5381612b17565b9050919050565b600081519050919050565b600082825260208201905092915050565b6000612b8182612b5a565b612b8b8185612b65565b9350612b9b818560208601611ee1565b612ba481611f0b565b840191505092915050565b6000608082019050612bc4600083018761200c565b612bd1602083018661200c565b612bde60408301856120a2565b8181036060830152612bf08184612b76565b905095945050505050565b600081519050612c0a81611e36565b92915050565b600060208284031215612c2657612c25611e00565b5b6000612c3484828501612bfb565b91505092915050565b7f4552433732313a206d696e7420746f20746865207a65726f2061646472657373600082015250565b6000612c73602083611ed0565b9150612c7e82612c3d565b602082019050919050565b60006020820190508181036000830152612ca281612c66565b9050919050565b7f4552433732313a20746f6b656e20616c7265616479206d696e74656400000000600082015250565b6000612cdf601c83611ed0565b9150612cea82612ca9565b602082019050919050565b60006020820190508181036000830152612d0e81612cd2565b9050919050565b7f4e487b7100000000000000000000000000000000000000000000000000000000600052601160045260246000fd5b6000612d4f82611f77565b9150612d5a83611f77565b9250828203905081811115612d7257612d71612d15565b5b92915050565b7f4e487b7100000000000000000000000000000000000000000000000000000000600052603160045260246000fdfea2646970667358221220d602cf29284f51c5ede8aed61c0d98872fd4602a8041399e78872697dd8f820564736f6c63430008120033",
  "linkReferences": {},
  "deployedLinkReferences": {}
}